:020000040800F2
:100000004009002029020008DB18000865180008D4
:10001000D9180008830400086122000800000000CD
:10002000000000000000000000000000731D000838
:10003000A505000800000000711D0008751D0008DE
:10004000430200084302000843020008430200087C
:10005000430200084302000843020008430200086C
:10006000430200084302000843020008430200085C
:10007000430200084302000843020008430200084C
:1000800085040008430200084302000843020008F8
:10009000430200084302000843020008430200082C
:1000A000430200084302000843020008430200081C
:1000B000430200084302000843020008430200080C
:1000C00043020008430200084302000843020008FC
:1000D00043020008430200085522000843020008BA
:1000E00043020008430200084302000843020008DC
:1000F00043020008430200084302000843020008CC
:1001000043020008430200084302000843020008BB
:1001100043020008430200084302000843020008AB
:10012000430200084302000843020008430200089B
:10013000430200084302000843020008430200088B
:10014000430200084302000843020008430200087B
:10015000430200084302000843020008430200086B
:10016000430200084302000843020008430200085B
:100170004302000843020008430200080000000098
:10018000430200084302000800F002F800F03CF8C7
:100190000AA090E8000C82448344AAF10107DA45E2
:1001A00001D100F031F8AFF2090EBAE80F0013F0F8
:1001B000010F18BFFB1A43F001031847E03000009D
:1001C00000310000103A24BF78C878C1FAD852072D
:1001D00024BF30C830C144BF04680C6070470000C1
:1001E0000023002400250026103A28BF78C1FBD840
:1001F000520728BF30C148BF0B6070471FB503F0DE
:1002000037F81FBD10B510BD00F001F91146FFF71A
:10021000F5FF02F049F800F01FF903B4FFF7F2FF11
:1002200003BC00F027F9000009488047094800474F
:10023000FEE7FEE7FEE7FEE7FEE7FEE7FEE7FEE796
:10024000FEE7FEE704480549054A064B70470000F3
:100250000D1E00088901000840030020400900200D
:10026000400500204005002053EA020C00F06980A0
:100270002DE9F04B4FF00006002B1FBFB3FA83F5BA
:1002800003FA05F424FA05F65E4012BF1643B2FAEB
:1002900082F502FA05F4C5F120051EBF22FA05FC1D
:1002A00044EA0C04203556EA044C4FEA144418BFC3
:1002B000641C4FF000084FF00009904271EB030CF2
:1002C00039D3002919BFB1FA81F701FA07F6B0FA5C
:1002D00080F700FA07F6C7F120071EBF20FA07FCD7
:1002E00046EA0C062037B6FBF4FCA7EB0507103FE7
:1002F00007F01F0BCBF120060CFA0BFB2CFA06F6CD
:1003000044BFB3460026202FA4BF5E464FF0000B2B
:100310005BEA060C08BF4FF0010B19EB0B09ABFBB6
:10032000027C48EB0608C01B06FB02CC0BFB03CC8F
:1003300071EB0C01C1E70B46024641464846BDE859
:10034000F08B13B54FF000004FF00001AFF30080C9
:10035000BDE81C40704710B5203AC0F00B80B1E8F2
:100360001850203AA0E81850B1E81850A0E81850EA
:10037000BFF4F5AF5FEA027C24BFB1E81850A0E8F3
:10038000185044BF18C918C0BDE810405FEA827C0D
:1003900024BF51F8043B40F8043B08BF7047D20724
:1003A00028BF31F8023B48BF11F8012B28BF20F8C5
:1003B000023B48BF00F8012B70474FF0000200B528
:1003C000134694469646203922BFA0E80C50A0E878
:1003D0000C50B1F12001BFF4F7AF090728BFA0E826
:1003E0000C5048BF0CC05DF804EB890028BF40F8F2
:1003F000042B08BF704748BF20F8022B11F0804F34
:1004000018BF00F8012B704770477047704775465A
:1004100000F02CF8AE4605006946534620F0070070
:10042000854618B020B5FFF70DFFBDE820404FF01E
:1004300000064FF000074FF000084FF0000B21F0CE
:100440000701AC46ACE8C009ACE8C009ACE8C0099B
:10045000ACE8C0098D46704710B50446AFF3008084
:100460002046BDE81040FFF7D8BE000000487047A6
:10047000E002002001491820ABBEFEE72600020082
:100480007047FEE7014800F0EBB800008002002052
:1004900001681823CAB2103AB2FBF3F2054B6FF3AE
:1004A0000901032A9B5CC36500D9091D81650846C3
:1004B000704700007A32000810B5014600208B69B1
:1004C0008A6A4FF0C07453B1B3F5005F15D072B1B2
:1004D000012A0CD0022A0AD0032A09D104E01AB159
:1004E000012A06D0022A03D1C96AC90100D5012018
:1004F00010BDC96AA142FAD010BD002AF7D0012A66
:10050000F2D0022AF3D0032AF3D010BD30B504682C
:10051000256825F480252560046863608368402B86
:10052000036803D099600068C26030BD9A600068BB
:10053000C16030BD0E48016821F080710160016822
:1005400041F0807101600B48016821F001010160F8
:10055000016841F0010101600021416000BF00BF5E
:1005600000BF406808B100207047012070470000BC
:10057000FCED00E0001000E031B5084C656800F0CB
:1005800017FD0749B0FBF1F000994143081A0091AB
:100590006168491B8142FBD338BD0000001000E0B8
:1005A00040420F00704772B6FEE72DE9F041044665
:1005B000876D00F0C9FA064694F835000025022838
:1005C00006D08020606584F834500120BDE8F081B9
:1005D0002068016821F0160101602068416921F05E
:1005E00080014161206C08B9A06C20B120680168CD
:1005F00021F0080101602068016821F0010101601B
:100600000CE000F0A1FA801B052807D920206065C6
:10061000032084F8350084F83450D7E72068006858
:10062000C007EED194F85C103F208840B8600120EC
:1006300084F8350084F834500020C7E790F835106E
:10064000022903D08021416501207047052180F8EF
:1006500035100068016821F0010101600020704739
:100660002DE9F84304464FF00009CDF800906348A7
:100670004FF41651A56D0068B0FBF1F72E6894F8A1
:100680005C10082000FA01F131420FD021680A689D
:1006900052070BD50A6822F004020A6094F85C1035
:1006A0008840A860606D40F00100606594F85C10BF
:1006B0004FF0010808FA01F0304208D0216849697A
:1006C000090604D5A860606D40F00200606594F8EA
:1006D0005C1004208840304208D0216809688907EE
:1006E00004D5A860606D40F00400606594F85C106B
:1006F00010208840304218D021680968090714D5B5
:10070000A86020680168490304D50068000308D583
:10071000A16C07E00168C90503D4016821F0080154
:100720000160216C09B12046884794F85C102020B4
:100730008840304231D021680968C9062DD5A860AB
:1007400094F8350005282068016806D0490347D58C
:10075000006800031DD4616C1CE021F016010160EB
:100760002068416921F080014161206C08B9A06CCA
:1007700020B12068016821F00801016094F85C1044
:100780003F208840A86084F8358084F83490216D3B
:100790001FE0E16B09B120468847606D00282BD02F
:1007A000606DC00714D0052084F83500206801680A
:1007B00021F0010101600098401C0090B84203D86C
:1007C00020680068C007F6D184F8358084F834903A
:1007D000E16C002910D001B02046BDE8F043084785
:1007E0000168C905D5D4016821F01001016084F8C1
:1007F000358084F83490CCE7BDE8F883840000208D
:100800002DE9F041044600F09FF906465CB1022054
:1008100084F83500002584F834502068016821F000
:10082000010101600DE00120BDE8F08100F08CF9CC
:10083000801B052805D920206065032084F8350039
:10084000F2E720680068C007F0D1226811682048EC
:100850000140D4E901031843D4E903363343184374
:1008600063691843A3691843E3691843236A18436B
:100870000843616A042903D1D4E90B1319430843DF
:10088000106020684069666A20F0070130460E4318
:10089000012704280CD1A06A0643E06A40B1204633
:1008A000FFF70AFE20B14020606584F83570BAE792
:1008B000206846612046FFF7EBFD94F85C203F215D
:1008C00091408160656584F835700020ACE70000D8
:1008D0003F8010F02DE9F0410446866D90F8340019
:1008E000002501280DD0012084F8340094F83570DB
:1008F0000020012F07D084F8340002252846BDE8E7
:10090000F0810220FBE7022784F8357060652046FD
:10091000FFF7FCFD94F85C103F208840B060206831
:10092000016841F016010160206C20B12068016867
:1009300041F0080101602068016841F00101016097
:10094000DCE700002DE9F84FDFF8BCA1002201250B
:1009500003264FF00F090AF1040BAAF1040E00BFA1
:100960000B6805FA02F42340A34270D10F7907F017
:100970000307012F01D0022F16D187684FEA4208E2
:1009800006FA08FC27EA0C07D1F80CC00CFA08FCA0
:100990004CEA070CC0F808C04768A7430C79C4F3B9
:1009A000001494403C4344600C79E443A4070AD00B
:1009B000C4684FEA420C06FA0CF7BC438F6807FA8A
:1009C0000CF72743C7600C7904F00304022C12D102
:1009D000D40800EB840CDCF820405707FF0E09FA1E
:1009E00007F824EA0804D1F8108008FA07F848EA62
:1009F0000408CCF8208004684FEA420C06FA0CF791
:100A0000BC430F7907F0030707FA0CF72743076089
:100A10004C6814F4403F70D03C4C276847F4804742
:100A20002760246822F0030704F480440094384CC3
:100A300007EB040CDCF8084897074FEA177809FA27
:100A400008F7BC43334FB84202D1002724E054E0FA
:100A5000314FB84201D101271EE0304FB84201D1D9
:100A6000022719E02E4FB84201D1032714E02D4F81
:100A7000B84201D104270FE02B4FB84201D105271E
:100A80000AE02A4FB84201D1062705E0284FB842B4
:100A900001D1072700E0082707FA08F72743CCF819
:100AA0000878DAF800405746D1F804C09C435FEA62
:100AB000CC2C00D51C433C60DBF800405F46D1F8ED
:100AC00004C09C435FEA8C2C00D51C433C60DEF8DC
:100AD00000407746D1F804C09C435FEA8C3C00D5C7
:100AE0001C433C60084F083F3C68D1F804C09C435D
:100AF0005FEACC3C00D51C433C60521C102AFFF43A
:100B00002FAFBDE8F88F0000083C01404438024098
:100B10000030014000000240000402400008024092
:100B2000000C024000100240001402400018024075
:100B3000001C02400069084000D0012070470AB143
:100B4000816170470904FBE7014880687047000035
:100B50007800002070B5040025D094F83D000025F1
:100B600020B984F83C50204600F0B8F8242084F8DE
:100B70003D002068016821F00101016020680168E2
:100B800041F4004101602068016821F400410160E6
:100B900000F014FA4D4A6168914201D84C4900E0D6
:100BA0004C49884201D2012070BD4B492368B0FBFB
:100BB000F1F15E6826F03F060E435E606368934283
:100BC00006D94FF4967359434FF47A73B1FBF3F19E
:100BD0002368491C1E6A26F03F063143196261688A
:100BE000914210D84900401EB0FBF1F2521CC2F3F2
:100BF0000B02042A01D2042022E0B0FBF1F0401CD9
:100C0000C0F30B001CE0A268F2B301EBC10303EBDD
:100C10000116431EB3FBF6F35B1C43F480431B0534
:100C200049D092B301EBC10202EB0111401EB0FBAF
:100C3000F1F0401CC0F30B0040F4804040F4004051
:100C40002168CA694CF6FF739A431043C861D4E91E
:100C5000071001432068026822F0C00211430160BE
:100C6000D4E9030101432068826848F2FF339A43C4
:100C700011438160D4E9050108432168CA6822F064
:100C8000FF021043C86001E00EE016E02068016832
:100C900041F0010101602564202084F83D002563B6
:100CA00084F83E50002070BD01EB4106431EB3FBAB
:100CB000F6F35B1CB3E70120C2E701EB4101401EE4
:100CC000B0FBF1F0401CC0F30B00B7E7A0860100B9
:100CD00080841E0000093D0040420F0010B586B020
:100CE000044614216846FFF768FB144920688842CF
:100CF00021D113480021026842F00202026000681C
:100D000000F0020005904FF4406000901220CDE901
:100D10000101032003900420049069460948FFF76D
:100D200011FE07481030016841F48001016000683D
:100D300000F48000059006B010BD0000005800408F
:100D400030380240000402400248816802781144B1
:100D500081607047780000200B4810B5016841F4AD
:100D600000710160016841F480610160016841F433
:100D700080710160032000F06FF80F2000F006F88A
:100D800000F024F8002010BD003C024070B50D4D6D
:100D900004464FF47A712878B1FBF0F00A490968EB
:100DA000B1FBF0F000F012FB48B9102C07D2002282
:100DB0002146501E00F030F800206C6070BD01200C
:100DC00070BD000078000020840000200A4808B5AB
:100DD000016841F480410160006800F480400090A7
:100DE0000548001F016841F080510160006800F073
:100DF0008050009008BD000044380240002809DB04
:100E000000F01F02012191404009800000F1E02024
:100E1000C0F8001170470000F0B40E4B1B680C4680
:100E2000C3F30223C3F10705042D00D90425191DBE
:100E3000072901D2002300E0DB1E012606FA05F196
:100E4000491E214099409E40761E16403143F0BC19
:100E500001F007BA0CED00E0064900F0070208684F
:100E60004FF6FF03184040EA0220034A104308608F
:100E7000704700000CED00E00000FA052DE9F04796
:100E80000E46050065D0DFF81481D8F80000F7B2EF
:100E900000F00700B04207D288F80070D8F80000D0
:100EA00000F00700B04254D128683D4C810712D5AC
:100EB000400703D5206840F4E05020602878000700
:100EC00003D5206840F4604020602068A96820F0C5
:100ED000F000084320602878C0072DD030496868AA
:100EE0000839012812D0022813D0032811D009682C
:100EF000890700292DDA216821F0030101432160CF
:100F0000FFF722FE814641F2883A0EE00968890324
:100F1000EFE709688901ECE7FFF716FEA0EB09018E
:100F2000514502D90320BDE8F0872068696800F0C8
:100F30000C00B0EB810FEFD1D8F80010404601F063
:100F40000701B14207D90770006800F00700B042FE
:100F500001D00120E7E72878400705D52068E96837
:100F600020F4E050084320602878000706D5206868
:100F7000296920F4604040EAC100206000F03EF89A
:100F80002168084AC1F30311515CC8400649086052
:100F900006480068FFF7FAFE0020C4E7003C024064
:100FA0000838024082320008840000207C000020C3
:100FB000014800687047000084000020044805498B
:100FC00000680968044AC1F38221515CC840704737
:100FD0008400002008380240923200080448054985
:100FE00000680968044AC1F34231515CC840704747
:100FF000840000200838024092320008154810B5DD
:10100000006810F00C02144813D01449042A0FD0C1
:10101000082A0ED10F4C241F2268236802F03F02D9
:101020005B0207D52068C0F38810A0FB010106E031
:10103000084610BD2168C1F38811A1FB00010023FF
:10104000FFF712F92168C1F30141491C4900B0FBC7
:10105000F1F010BD083802400024F40040787D0112
:101060002DE9F84F04006ED02078DFF84C93C007CC
:10107000A9F104054AD009F104000168C1F3810116
:10108000012908D00068C0F3810002280AD1D9F8EC
:101090000000400206D52868800337D56068002824
:1010A000E1D033E06068B0F5803F10D0B0F5A02FFC
:1010B000286810D020F480302860286820F4802030
:1010C00028606068A8B1FFF73FFD06460DE028687C
:1010D00040F48030F4E740F480202860F7E700BF58
:1010E000FFF732FD801B642873D828688003F7D58A
:1010F0000CE0FFF729FD064605E000BFFFF724FDE1
:10110000801B6428F0D828688003F7D42078DFF8A3
:10111000AC8280074FF0000A3ED5A748001D016849
:1011200011F00C0F08D00068C0F3810002280BD129
:10113000D9F80000400207D42868800716D5E06877
:10114000012800D112E033E1E068B8B10120C8F80D
:101150000000FFF7F9FC064605E000BFFFF7F4FCCE
:10116000801B0228C0D828688007F7D52868216925
:1011700020F0F80040EAC10028600DE0C8F800A0A7
:10118000FFF7E2FC064604E0FFF7DEFC801B0228C6
:101190001FD828688007F7D42078000722D5864F0B
:1011A00087486169703771B101210160FFF7CCFC9C
:1011B000064604E0FFF7C8FC801B022809D83868FF
:1011C0008007F7D50EE0C0F800A0FFF7BDFC06468B
:1011D00005E082E0FFF7B8FC801B02287DD8386864
:1011E0008007F7D42078400768D5DFF8CCB1002716
:1011F0000BF13C0BDBF80000C0000BD4DBF8001057
:1012000041F08051CBF80010DBF80000012700F01E
:10121000805000906B4E3068C00510D4306840F4A8
:1012200080703060FFF790FC009005E0FFF78CFCC9
:101230000099401A022850D83068C005F6D55E4E95
:10124000A0686C3601280FD00528306810D020F037
:1012500001003060306820F004003060A068B8B150
:10126000FFF772FC00900FE0306840F00100F4E7F7
:1012700040F004003060F7E7FFF766FC0099411A80
:1012800041F28830814266D830688007F4D50EE09C
:10129000FFF75AFC009007E0FFF756FC0099411A4F
:1012A00041F28830814256D830688007F4D42FB19B
:1012B000DBF8001021F08051CBF80010A069C8B312
:1012C0003D49091D0968C1F3810102294AD002285C
:1012D000504607D0C8F8600000E03CE0FFF734FC5F
:1012E00004463BE04746C8F86000FFF72DFC064681
:1012F00005E000BFFFF728FC801B02282BD82868D8
:101300008001F7D4D4E907010843A16A2E4A4908AD
:1013100002EB0141626A41EA8211084394F82C1001
:1013200040EA0161C9F8001001203866FFF70CFCA3
:10133000044606E03EE000BFFFF706FC001B022863
:1013400009D828688001F7D534E000BFFFF7FCFB1F
:10135000001B022802D90320BDE8F88F286880010D
:10136000F4D427E00128F7D0D9F80000E26900F4AE
:10137000800191421CD1226A00F03F01914217D1B5
:1013800047F6C071626A0140B1EB821F10D1A26AB8
:101390004FF0FF3300F4403103EB5202B1EB024F48
:1013A00006D194F82C1000F07060B0EB016F01D002
:1013B0000120D1E70020CFE7043802400000474277
:1013C000800E4742007000400000FFFF10B5401E35
:1013D000B0F1807F01D3012010BD4FF0E0246061A7
:1013E0000F21601700F03DFF0020A0610720206161
:1013F000002010BD70477047F8B5016804460868C2
:10140000CA684B6910F00F0F4FF0000559D003F078
:10141000010602F49077374365D0C10705D0D105A6
:1014200003D5216C41F001012164410705D5D9079D
:1014300003D0216C41F002012164810705D5D90751
:1014400003D0216C41F004012164010707D502F0AB
:101450002001314303D0216C41F008012164216C4B
:1014600000293AD0800604D5900602D5204600F027
:1014700085FD20684069216CC0F38010090700D405
:1014800060B3204600F045FD20684069400621D544
:101490002068143050E8001F21F0400140E800129D
:1014A000002AF5D1A06BA8B16C490165A06BFFF7CC
:1014B000C5F8002811D0A06B016D01B0BDE8F04067
:1014C000084783060FD593060DD52046BDE8F840A2
:1014D00000F054BD2046FFF78EFFF8BD2046FFF711
:1014E0008AFF2564F8BD266B2023012E79D1C6061C
:1014F00077D5D60675D508684868009048694006D3
:1015000040D5A16B086840680004000CEAD0A28DA9
:101510008242E7D9E085C869B0F5807F2DD0206888
:101520000C3050E8001F21F4807140E80012002ABE
:10153000F5D12068143050E8001F21F0010140E887
:101540000012002AF5D12068143050E8001F21F065
:10155000400140E80012002AF5D184F83E302563AE
:1015600020680C3050E8001F21F0100140E8001204
:10157000002AF5D1A06BFFF718F8A08DE18D401A75
:1015800081B229E0A08DE18D401A81B2E08D002862
:10159000A8D00029A6D020680C3050E8002F22F4F3
:1015A000907240E80026002EF5D12068143050E8F3
:1015B000002F22F0010240E80026002EF5D184F829
:1015C0003E30256320680C3050E8002F22F01002D6
:1015D00040E80023002BF5D12046FFF70BFFF8BDB4
:1015E000FFE705062BD5150629D594F83D002128DF
:1015F000F5D1A068B0F5805F01D12069B0B1206A53
:10160000411C2162216800784860E08C401E000483
:10161000000CE084E3D12068C16821F08001C16042
:101620002068C16841F04001C160D8E7206A0088A5
:10163000C0F308004860206A801C2062E5E740068D
:10164000CDD55006CBD5CA68204622F04002CA60EC
:1016500084F83D3000F005F9C1E700001D1E0008C8
:1016600070B5040004D094F83D00002510B106E0E8
:10167000012070BD84F83C50204600F023F824205F
:1016800084F83D002068C16821F40051C160204603
:1016900000F0D4FC2068016921F4904101612068C8
:1016A000416921F02A0141612068C16841F400517B
:1016B000C1602564202084F83D0084F83E000020AD
:1016C00070BD000070B586B0064614216846FEF76E
:1016D00074FE2349306888423FD1224800250168C2
:1016E00041F400310160006800F4003005901D48AD
:1016F0001038016841F0010101600068694600F09E
:10170000010005900C2000900220CDE90105032086
:101710000390072004901448FFF714F9144C134861
:1017200020604FF00060C4E901054014C4E9035093
:101730006561A561E561256220466562FFF760F895
:1017400008B1FEF730FFB463002211462620A663DD
:10175000FFF762FB2620FFF751FB06B070BD0000CB
:1017600000440040403802400000024088600240CF
:101770008002002090F83E30202B0ED159B152B19A
:1017800090F83C30012B08D0012380F83C30002336
:10179000036300F0D9BC01207047022070470000AD
:1017A000014800F0E5BF0000000000207047000085
:1017B0002DE9F843044690F83D001F4616460D46B5
:1017C00020284CD1C5B1BEB194F83C00012846D0C8
:1017D000012084F83C004FF00008C4F8408021202C
:1017E00084F83D00FFF7B0F9A6848146E684A0683E
:1017F000B0F5805F03D004E00120BDE8F8832069E4
:1018000028B12E465FF0000584F83C800EE00026EB
:10181000FAE78021204600F0E1FCA0B9AEB116F84D
:10182000010B21684860E08C401EE084E08C4B4650
:101830004FF0000200970028EBD14FF04001204606
:1018400000F0CCFC30B10320D7E735F8020BC0F331
:101850000800E6E7202084F83D000020CDE70220C4
:10186000CBE77047FEE7000070B586B014216846EC
:10187000FEF7A3FD16480024016841F080010160D5
:10188000016801F080010591016841F001010160EA
:10189000016801F001010591016841F00201016058
:1018A00000680C4E00F002004FF400750590002215
:1018B00029463046FFF743F901200095CDE90104A0
:1018C000694630460394FFF73DF806B070BD00004E
:1018D0003038024000040240FEE7FEE770B50446DF
:1018E0002DED068B04F1400C0020B0EE419ADDE9AD
:1018F0000A568CE80E00F0EE619AB0EE40AAF0EEC7
:1019000060AA6070B0EE428AF0EE628A9FED121B10
:101910009FED130B204600F031F90120A060314605
:10192000204600F0FBF82946B0EE482AF0EE682A7F
:10193000B0EE491AF0EE691AB0EE4A0AF0EE6A0A01
:10194000204600F09FF9FFF7FFF8A168401A606099
:10195000BDEC068B70BD00000000000000E06F4091
:10196000000000000000000070B504462DED088B5B
:10197000407800287ED0FFF7E7F805466068A16848
:10198000281A814277D8206C90ED009BA06C53EC14
:10199000192B90ED000B51EC100B01F07FFB94ED37
:1019A000160B41EC1A0B53EC102B51EC190B01F0F8
:1019B00075FB94ED0C0B41EC180B53EC1A2B51EC0E
:1019C000100B01F02BFA94ED141B53EC112B00F0CB
:1019D00049FF41EC1B0B84ED14BB207868B994EDF2
:1019E0000A0B53EC182B51EC100B01F017FA53ECC7
:1019F0001B2B01F047FBC4E9140194ED1A1B94ED75
:101A0000140B53EC112B51EC100B01F005FB02D21F
:101A100094ED1A0B0CE094ED181B94ED140B53ECA1
:101A2000112B51EC100B01F0BDF903D294ED180B02
:101A300084ED140B207850B194ED0A0B53EC1A2B63
:101A400051EC100B01F0EAF941EC1A0B01E09FEDAB
:101A50001DAB94ED0E0B53EC182B51EC100B01F059
:101A6000DDF994ED141B53EC112B01F00BFB53EC3F
:101A70001A2B01E020E022E000F0F4FE94ED1A0BB6
:101A800041EC180B53EC102B01F0C6FA02D294ED86
:101A90001A8B0AE094ED180B51EC180B53EC102B39
:101AA00001F080F901D294ED188B606C80ED008B11
:101AB00084ED169B01206560BDEC088B70BD002095
:101AC000FAE70000000000000000000010B5044626
:101AD000406C90ED000B84ED140B206C90ED001B1E
:101AE00051EC100B84ED161B94ED1A1B53EC112BCB
:101AF00001F092FA02D294ED1A0B0CE094ED181B4F
:101B000094ED140B53EC112B51EC100B01F04AF92E
:101B100003D294ED180B84ED140B10BD70B5044680
:101B200040780D46D0B1E078A84217D094ED0A0B6A
:101B300051EC100B00F08AFEC4E90A0194ED0C0B85
:101B400051EC100B00F082FEC4E90C0194ED0E0B79
:101B500051EC100B00F07AFEC4E90E01E57070BD87
:101B600070B50446012901D0002505E06078012503
:101B700010B92046FFF7AAFF657070BD10B5044686
:101B80002DED048BB0EE418AF0EE618AB0EE409A02
:101B9000F0EE609A53EC182B51EC190B01F03CFA63
:101BA00041D984ED189B84ED1A8B607800283AD0D7
:101BB000606C53EC182B90ED000B51EC100B01F006
:101BC0002BFA02D294ED1A0B0DE0606C94ED180B19
:101BD00090ED001B53EC102B51EC110B01F0E2F8CF
:101BE00004D294ED180B606C80ED000B94ED1A1B81
:101BF00094ED140B53EC112B51EC100B01F00CFA7B
:101C000002D294ED1A0B0CE094ED181B94ED140B1A
:101C100053EC112B51EC100B01F0C4F803D294EDEE
:101C2000180B84ED140BBDEC048B10BD70B50D1EAC
:101C30002DED028B044622DDA06801F09FF841ECF7
:101C4000180B284601F083F853EC182B00F0BEFE69
:101C500041EC180B94ED0C0B53EC182B51EC100BC2
:101C600001F0DCF8C4E90C0194ED0E0B53EC182BD9
:101C700051EC100B00F0AAFEA560C4E90E01BDEC0A
:101C8000028B70BD70B50D462DED088BB0EE408A0D
:101C9000F0EE608A0446B0EE42AA9FED319BF0EE72
:101CA00062AAB0EE41BAF0EE61BA53EC192B51ECD6
:101CB000180B01F077F84ED353EC192B51EC1B0B9A
:101CC00001F070F847D353EC192B51EC1A0B01F0CB
:101CD00069F840D3A570012D40D00020207084ED1C
:101CE000048B84ED06BB84ED08ABA06801F046F8D8
:101CF0009FED1D1B53EC112B00F068FE41EC190BFE
:101D000084ED0A8B53EC192B51EC1B0B01F086F878
:101D100041EC1B0B53EC192B84ED0CBB51EC1A0B53
:101D200000F054FE41EC190B84ED0E9BE078012885
:101D300011D151EC180B00F089FDC4E90A0151ECF6
:101D40001B0B00F083FDC4E90C0151EC190B00F0F2
:101D50007DFDC4E90E01BDEC088B70BD0120BDE71F
:101D600000000000000000000000000000408F4064
:101D700070477047FEF7E8BF30B593B03021684632
:101D8000FEF71BFB14210CA8FEF717FB1D480025CE
:101D9000016841F080510160006800F080501190AE
:101DA0001948016841F4804101600068022400F490
:101DB000804011900120039010200490009406941C
:101DC0000820CDE90750A820CDE9090404200B9094
:101DD0006846FFF745F908B172B6FEE70CA90F2077
:101DE00081E831004FF4A0500F904FF480501090D4
:101DF00005210CA8FFF742F8002801D072B6FEE7D3
:101E000013B030BD40380240007000400248016805
:101E100041F470010160704788ED00E010B5806BFF
:101E20000021C185C184FFF7E6FA10BD70B5846B4F
:101E30002068406994F83D10C0F3C01000252129A6
:101E400004D118B1E584204600F08AF82068406982
:101E500094F83E10C0F38010222904D118B1E58512
:101E6000204600F056F8206C40F010002064204618
:101E7000FFF7C1FA70BD10B50146806B09680968AB
:101E8000C9052FD40021C18501680C3151E8002F0C
:101E900022F4807241E80023002BF5D1016814314F
:101EA00051E8002F22F0010241E80023002BF5D178
:101EB0000168143151E8002F22F0400241E800236C
:101EC000002BF5D1202180F83E10016B012909D1AA
:101ED00001680C3151E8002F22F0100241E8002384
:101EE000002BF5D1016B012902D0FFF759FC10BD81
:101EF000818DFFF77FFA10BD10B5806B016B012952
:101F000002D0FFF753FC10BD818D4908FFF772FA2C
:101F100010BD01680C3151E8002F22F4907241E8A5
:101F20000023002BF5D10168143151E8002F22F075
:101F3000010241E80023002BF5D1016B012909D1F1
:101F400001680C3151E8002F22F0100241E8002313
:101F5000002BF5D1202180F83E100021016370474D
:101F600001680C3151E8002F22F0C00241E8002343
:101F7000002BF5D1202180F83D10704708B590F86E
:101F80003E10222901D0022008BD82684FF4805300
:101F90009A4201D1016921B1816A9A421BD04AB1AA
:101FA0000AE00268816A5268C2F308020A80816A04
:101FB000891C08E0026972B10268526802F07F026F
:101FC0000A70816A491C8162C18D491E0904090C8D
:101FD000C18503D019E002685268F1E70168CA6858
:101FE00022F02002CA600168CA6822F48072CA60C6
:101FF00001684A6922F001024A61202180F83E10FE
:10200000016B012903D0FFF7CBFB002008BD0021A5
:10201000016301680C3151E8002F22F0100241E801
:102020000023002BF5D101680A68D20602D50A68A0
:1020300049680091818DFFF7DDF9E6E770B5044648
:1020400000680169E26821F440511143016121698E
:10205000A068E26908436169114308432168CA68BE
:1020600049F20C639A430243CA6020684169A2693D
:1020700021F440711143416131492068884202D006
:102080003049884202D1FEF7A9FF01E0FEF796FF32
:10209000E2690023192164253226B2F5004F6268F7
:1020A00028D0A0FB0101930F9200FEF7DDF8014656
:1020B000B0FBF5F06FF01802504301EB800006EB27
:1020C0000010B0FBF5F000F0F002B1FBF5F002EB10
:1020D0000012B1FBF5F06FF01803584301EB8000DC
:1020E00006EB0010B0FBF5F000F00F002168104483
:1020F000886070BDA0FB010192185B41FEF7B4F847
:102100000146B0FBF5F00201B1FBF5F06FF01803EA
:10211000584301EB800006EBC000B0FBF5F000F087
:10212000F80002EB4002B1FBF5F0584301EB8000F0
:1021300006EBC000B0FBF5F000F00700D6E70000AA
:10214000001001400014014038B5816282850025ED
:10215000134604460564222084F83E00A26B1C4806
:10216000D063A26B1B481064A26B1B48D064A06BA9
:102170000A4605652168A06B091DFEF7ABFB2068C8
:1021800001684068009084F83C50206948B120689C
:102190000C3050E8001F41F4807140E80012002A22
:1021A000F5D12068143050E8001F41F0010140E8EB
:1021B0000012002AF5D12068143050E8001F41F0C9
:1021C000400140E80012002AF5D1002038BD00008F
:1021D000771E0008F91E00082D1E00082DE9F041A9
:1021E000984617460E460446069D27E0681C25D0F3
:1021F0002DB1FEF7A9FCA0EB0800A8421ED920686B
:102200000C3050E8001F21F4D07140E80012002A81
:10221000F5D12068143050E8001F21F0010140E89A
:102220000012002AF5D1202084F83D0084F83E00F9
:10223000002084F83C000320BDE8F081206800689D
:1022400036EA000004D00020B842CFD00020F3E7E7
:102250000120F9E70148FFF7CFB80000DC000020BB
:10226000FEE70907090E002804DB00F1E02080F8F2
:102270000014704700F00F0000F1E02080F8141DFA
:102280007047034610B50020024604E09C5C521CD7
:102290002044C0B2D2B28A42F8D310BD014948608E
:1022A00070470000700000202DED068B88B0FEF70F
:1022B00053FDFFF761FDFFF7D7FAD248002501680B
:1022C00041F40011016000682A4600F400100090FB
:1022D00029461020FEF7A0FD1020FEF78FFDCB4809
:1022E000C94901604FF4E131C0E901150C21C56015
:1022F000C0E904518561C561FFF7B2F908B172B652
:10230000FEE7C248C24954380160C249C0E901151C
:102310004FF48041C0E9035145618561C5610562A3
:10232000FEF718FC08B172B6FEE7FEF703F9B74AEC
:10233000B948443201211060918028320223106094
:102340009380B24BB54A943310241A609C80283392
:10235000CC0318609C8028331A6042159A8003F1E0
:1023600028021060C01490809FEDAD0BAE4C84ED40
:102370001A0B9FEDAE1BB0EE412AF0EE612A9FEDE5
:10238000AD0BCDE9001504F16803A3F10802A2F139
:102390000801AA48FFF7A2FA0121A848FFF7E0FBCD
:1023A0004FF4FA71A548FFF741FC9FEDA5ABB0EEE5
:1023B0004A1AF0EE6A1A9FEDA48BA048B0EE480AC4
:1023C000F0EE680AFFF7DAFB9048FFF767FF00F0CE
:1023D000F9F99A481838A0F17005A0F1C80BA0F1DE
:1023E000F006A0F1A00AA0F15009A0F17808A0F130
:1023F00028070690182268460699FDF7ACFF05F1FC
:1024000060000FC800F024F984ED140B182259461F
:102410006846FDF7A0FF06F118000FC800F018F994
:1024200084ED0A0B182251466846FDF794FF06F129
:1024300040000FC800F00CF984ED0C0B182249463F
:102440006846FDF788FF05F110000FC800F000F99D
:1024500084ED100B182241466846FDF77CFF06F11B
:1024600068000FC800F0F4F884ED0E0B182239460E
:102470006846FDF770FF05F138000FC800F0E8F876
:1024800084ED120B94ED0C0B53EC102B94ED0A0B16
:1024900051EC100B00F0C0FD0BD894ED0A0B53EC7F
:1024A000182B51EC100B00F0B7FD02D294ED0A0B83
:1024B00015E094ED0C0B53EC102B94ED0A0B51EC42
:1024C000100B00F06FFC0DD894ED0C0B53EC182B97
:1024D00051EC100B00F0A0FD04D294ED0C0B84ED38
:1024E000020B01E084ED028B94ED100B53EC102BEA
:1024F00094ED0E0B51EC100B00F08EFD0BD894ED0B
:102500000E0B53EC182B51EC100B00F085FD02D292
:1025100094ED0E0B15E094ED100B53EC102B94ED95
:102520000E0B51EC100B00F03DFC0DD894ED100B90
:1025300053EC182B51EC100B00F06EFD04D294ED0F
:10254000100B84ED040B01E084ED048B94ED120B71
:1025500053EC182B51EC100B00F05EFD02D894EDFB
:10256000120B03E0B0EE480AF0EE680A84ED060BA9
:1025700094ED140BB0EE489AF0EE689A53EC192BD8
:1025800051EC100B00F048FD04D894ED140B84EDD1
:10259000080B01E084ED089B94ED020B53EC192B22
:1025A00051EC100B00F038FD06D294ED020B2348DD
:1025B00084ED160BFFF7D8F994ED180B53EC192B9B
:1025C00051EC100B00F028FD0ED294ED180B53ECDB
:1025D0001A2B51EC100B00F045F900F08BFB052392
:1025E000002280B20F2109E094ED180B51EC100B82
:1025F00000F080FB002280B20523114600F0EAF8CB
:10260000F8E600003038024000440040DC000020C2
:1026100000580040A0860100000002400004024073
:102620000000000000002440000000200000000026
:102630000000F03F000000000000004010020020F9
:102640000000000000003E4000000000000000000C
:102650000FB4002270B52DED028B86B0BDF834505A
:102660000C982946FEF76BFA14216846FDF7A5FE83
:10267000012000240095CDE90104039469460C98DB
:10268000FEF760F9012229460C98FEF758FA05205A
:10269000FDF772FF002229460C98FEF750FA40F22F
:1026A000EE20FDF769FF02200095CDE90140694663
:1026B0000C98FEF747F99FED288B44F6440629460F
:1026C0000C98FEF737FA70B19DED0E0B53EC182BFA
:1026D00051EC100B00F0D2FA12D1204600F037FB7B
:1026E000CDE90E010CE029460C98FEF723FA38B923
:1026F000732C05DD204600F02AFBCDE9100105E032
:102700000120FDF739FF641CB442D8DB9DED0E0BB0
:102710009DED101B53EC102B51EC110B00F0BEFC87
:102720009FED0F1B53EC112B00F050F99FED0E1B8A
:1027300053EC112B00F072FB41EC180B0A20FDF753
:102740001BFF06B0B0EE480AF0EE680ABDEC028B43
:1027500070BC5DF814FB00000000000000000000E9
:102760000000000000004D40000000000000E03FBD
:1027700013490A78A52A1CD14A785A2A19D189788E
:10278000012201290AD002290AD003290AD00429EA
:102790000AD005290AD006290AD00AE0027008E00A
:1027A000427006E0827004E0C27002E0027100E054
:1027B00042710349032208464068FEF7DBBF000070
:1027C000700000200249032208464068FEF7D2BF8D
:1027D00070000020F0B585B014460D4606461F4631
:1027E000142214A16846FDF7B6FD300A8DF80300E7
:1027F0008DF80460280A8DF805008DF80650200A2F
:102800008DF807008DF808408DF809701021684692
:10281000FFF737FD8DF80F000B48012310226946A2
:102820004068FEF7C5FF10B1002005B0F0BD0120E3
:10283000FBE70000A55A03000000000000000000B4
:1028400000000000000000007000002081F0004146
:10285000704780F00040704721F00041704720F041
:102860000040704710B591EA030F48BF83F0004362
:1028700000F11C84841A71EB030C05D2121943EB8E
:102880000C03001B61EB0C01DFF824E14FEA11544B
:10289000A4EB135C1EEA430F18BF9EEA445F73D09B
:1028A00023EA0E03DCF1200E21EA045143F48013E5
:1028B00032D322FA0CFE10EB0E0023FA0CFE41EB91
:1028C0000E01CCF1200E03FA0EFE10EB0E0051F1BA
:1028D0000001B1F5801FCCF1200E32D201EB045182
:1028E00012FA0EF2BDE8104058BF7047401C38BFC6
:1028F0005FEA420218BF7047002814BF20F00100B1
:1029000041F100014FEA410313F5001F38BF704742
:10291000A1F1C04100F07ABB012A43EB0302ACF104
:10292000200CDCF11F0E32BF4FF0000E23FA0CF327
:1029300010EB030041EB0451B4EB115FD0D0A1EBDD
:10294000045101F5801149085FEA300001EB0451A0
:102950000ED350F1000038BF12FA0EFE08D1BDE8C8
:102960001040C9E7401C38BF5FEA4202CAD1C3E742
:10297000BDE810404FEA410313F5001F38BF704710
:10298000A1F1C04100F042BB9EEA445F08D011EAC9
:102990005E0FBDE8104004BF01F000410020704709
:1029A000BDE8104070B500F0E3FA00BF64FBBE3E26
:1029B0000000E0FF491058BFC1F140415B1058BF13
:1029C000C3F140438B42EFF3008070472DE9C041D3
:1029D00030B4DFF8A0C23CEA111418BF3CEA13146B
:1029E00000F0EC8081EA03051CEA111444EAD57476
:1029F00018BF1CEA131500F0C780A4EB05044FF0C4
:102A0000004545EAC12145EAC32341EA505143EA62
:102A1000525304F17F74994204F500344FEAC02008
:102A20004FEAC22208BF904200F09C804FEA136533
:102A30000FF24016765D4FEA134506FB05F7C7F126
:102A4000807706FB07F74FEAD737A7FB0368764284
:102A5000C8F58038A7FB06CE38BFA8F1010807FBF0
:102A600008E64FF0000EA6FB028CE6FB03CEDCF17D
:102A7000000CCEF1004E38BFAEF1010EA6FB0C5893
:102A80004FF000074FF00005E6FB0E87A1FB08C6DC
:102A9000A0FB07CE16EB0E0645F10005E1FB07652E
:102AA00015F1E04E7EBFA4F580345FEA46066D4125
:102AB00016F1800745F100054FEA17274FEA066631
:102AC00047EA0567A6F1DE46B6F1805F4FEA1525B5
:102AD0001FD9384624F0010C05EBC471BCF1FE6F20
:102AE00001EB0C1102D8F0BCBDE8008124425CBFB0
:102AF00001F5801E9EEAC47F02D4F0BCBDE80081CF
:102B0000244238D4F0BCA1F1C041BDE8004100F03E
:102B10007DBA4FEAD22242EA43524FEAD323A7FBBF
:102B200002864FEAD02040EA415007FB03661EEAC6
:102B30000E0F4FEAD12105FB026658BFA6EB0056E7
:102B4000B6EB00564FEA520E4EEAC37E18EB0E0E5D
:102B500056EB530EBDD518EB02085E417F1C55F1B4
:102B60000005B6E74FF480154FF000074FF0000660
:102B70004FF00008ADE7F0BC4FF0000001F1C0419C
:102B800001F00041BDE8008111EA0C1F0CEA1315A9
:102B900000D00CE013EA0C1F00F025804FF000007D
:102BA000F0BC81EA030101F00041BDE80081F0BC06
:102BB000BDE8004181EA030100F028BAF0BCBDE89D
:102BC000004170B500F0D4F9097EFC3E00F007B872
:102BD00081EA03014FF0000001F00041704781EAF3
:102BE000030100F013BAF0BCBDE800414FF0000053
:102BF00021497047FFFDFBF9F7F5F4F2F0EEEDEB3C
:102C0000E9E8E6E4E3E1E0DEDDDBDAD8D7D5D4D3EA
:102C1000D1D0CFCDCCCBCAC8C7C6C5C4C2C1C0BF36
:102C2000BEBDBCBBBAB9B8B7B6B5B4B3B2B1B0AF3C
:102C3000AEADACABAAA9A8A8A7A6A5A4A3A3A2A120
:102C4000A09F9F9E9D9C9C9B9A99999897979695DB
:102C500095949393929191908F8F8E8E8D8C8C8B77
:102C60008B8A8989888887878685858484838382FF
:102C7000828181800000FF070000F87F51EA030C89
:102C800017D41CF5801F58BFBCF5801F00F10680CB
:102C9000994218BF704708BF9042704707D711F597
:102CA000801F58BF13F5801F19D49942704789427D
:102CB00070471CF5801F08D5BCF5801FF7D58B42E7
:102CC00018BF704708BF824270474FF4001C1CEBCE
:102CD000410F38BF1CEB430F01D28B42704770B5D8
:102CE00000F046F9922449004FF000514FF0805314
:102CF000FFF760BE4FEA1153A3F58063D3F11E03C3
:102D0000A8BFD3F1200C08DB4FF0004242EAC122F9
:102D100052EA505232FA03F0704709420BD4102B9A
:102D2000C4BF0020704703F5787CBCF1FF3F05D09D
:102D30004FF0FF3070474FF00000704770B500F063
:102D400017F900BF4992248000207047F0E710F087
:102D5000004248BF4042B0FA80F310FA03F10AD0B3
:102D6000C3F11D0303F580634FEA415002EB0352A8
:102D700002EBD12170474FF000007047B0FA80F3AA
:102D800010FA03F10AD0C3F11D0303F580634FEA83
:102D900041504FEA035202EBD12170474FF000003F
:102DA0007047000051EA030C17D41CF5801F58BF70
:102DB000BCF5801F00F10680994218BF704708BF1C
:102DC0009042704707D711F5801F58BF13F5801F39
:102DD00019D499427047894270471CF5801F08D565
:102DE000BCF5801FF7D58B4218BF704708BF8242E1
:102DF00070474FF4001C1CEB410F38BF1CEB430F16
:102E000001D28B42704770B500F0B2F892244900AD
:102E10004FF000514FF08053FFF7CCBDDFF848C1B1
:102E200070B51CEA111E1EBF1CEA13159EEA0C0F9A
:102E300095EA0C0F00F06F8081EA030423EA4C133B
:102E40004EEAD47E21EA4C1141F4801143F4801300
:102E5000AE44A1FB024CA0FB0365AEF17F7E3619A8
:102E600055EB0C05A1FB034C4CF10003A0FB021C2D
:102E700016EB0C06654153F10003094218BF46F0FA
:102E8000010613F4007F0BD14FEA03314FEA0530FE
:102E9000340341EA155140EA16506FF003020AE08C
:102EA0004FEAC3214FEAC520F40241EA555140EAF6
:102EB00056506FF0020202EB2E4201EB025585EAFA
:102EC000CE710AD05FEA440C18BF24F0004450F1E0
:102ED000000041F1000120EAD47040F2FE7C62451E
:102EE00000D270BDA84214BF4FF080444FF0404460
:102EF000002E08BF0024BEF1806FA8BFA1F1C04121
:102F0000BDE8704080F282804FF0000001F1C041C6
:102F100001F0004170479EEA0C0F0CEA131518BF30
:102F200095EA0C0F06D04FF0000081EA030E0EF078
:102F3000004170BD00F01CF88900013E00F007B8A8
:102F400000F009B84FEA430C5FEA5C5C08D081EA04
:102F5000030100F05BB84FEA410C5FEA5C5CF6D11C
:102F60004FF00000014970470000FF070000F87FA4
:102F70000EF1020E2EF0030E5EF8046B364205D4FD
:102F8000012A43EB030515F5001F12D8012841EB78
:102F9000010C1CF5001F0CD80ED14FEAD17C15F5A1
:102FA000001F0CEB4C0C0CF1020C08BF4CEBD37C5B
:102FB00004E04FF0080C01E04FEAD37C0CEB4C0529
:102FC00026FA05F606F00706B6F1040C06D20EEB5B
:102FD000860CBDE870404CF0010C6047DFE80CF057
:102FE000090B02024FF000414FF00000A1F5002153
:102FF00070BD19461046012851EB010418BFD4F5E5
:10300000001484BF002001F0004170BD0808A0F545
:1030100000114FEA3101704753EA010C17D41CF537
:10302000801F58BFBCF5801F00F106808B4218BF7F
:10303000704708BF8242704707D713F5801F58BFFB
:1030400011F5801F19D48B4270479B4270471CF5C5
:10305000801F08D5BCF5801FF7D5994218BF70476F
:1030600008BF904270474FF4001C1CEB430F38BF61
:103070001CEB410F01D2994270470FB40CBC03BC4A
:10308000FFF7C1BE91EA030F10B581F000413FF593
:10309000F1AB83F0004300F009B8000010B591EAED
:1030A000030F48BF83F000433FF5E4AB841A71EB94
:1030B000030C07D212198CF0004C43EB0C03001BDD
:1030C00061EB0C01DFF8A4E14FEA1154A4EB135CAF
:1030D0001EEA430F18BF9EEA445F00F0B08023EA67
:1030E0006E03524221EA0451C3EB6E0338BF5B1EEC
:1030F000DCF1200E25D322FA0CFE10EB0E0043FA71
:103100000CFE41EB0E01CCF1200E03FA0EFE10EB8B
:103110000E0051F10001CCF1200E29D412FA0EF26A
:1031200001EB0451BDE8104058BF7047401C1CBF64
:10313000B2F1004F704700280CBF491C20F001007D
:10314000704712EB020E43EB030218BF4FF0010E63
:103150004EEA4202ACF1200CDCF11E0E54D943FAC7
:103160000CFE10EB0E0051F1FF31CCF11E0ED5D547
:103170000EF1010E12FA0EFE404141EB010101EB8E
:10318000445C5FEA5C5C10D910EBDE7001EB04512B
:1031900038BFBEF1004FBDE8104018BF704700288F
:1031A0000CBF491C20F00100704730D24FEAD42CEC
:1031B00011F5001124F400641BD0B1FA81F20B3A2E
:1031C000A41AA41ED2F12003914030FA03F319434C
:1031D000904001EBCC71002C01EB0451BDE8104094
:1031E000A8BF704701F1C0414FF0000001F000415D
:1031F0007047B0FA80F310FA03F100D110BDE41A61
:10320000173C4805C90AE4E701EB045110BD491019
:1032100001EB0451BDE810404FEA300002E04FF0EE
:10322000000170474A0008BF0042F8D0B2F5001F05
:1032300028BF704701F000414FF0000070479EEA40
:10324000445F07D011EA5E0FBDE8104004BF0021C3
:1032500000207047BDE8104070B5FFF789FE00BF41
:1032600040DFF63E83F00041104670470000E0FF6B
:103270004FF04070E1EE100A70470006101600068D
:103280001016000000000000000001020304060701
:10329000080900000000010203040000BC3200081D
:1032A0000000002088000000C4010008443300082A
:1032B00088000020B8080000E001000800000000BD
:1032C00000000000000000000000000000000000FE
:1032D00000000000000000000000000000000000EE
:1032E00000000000000000000000000000000000DE
:1032F00000000000000000000000000000000000CE
:1033000000000000000000000000000000000000BD
:1033100000000000000000000000000000000000AD
:10332000000000000000000000000000000000009D
:10333000000000000100000010000000000000007C
:043340000024F40071
:040000050800018965
:00000001FF
